{
  "contracts/Extension1Upgradeable.sol": {
    "Extension1Upgradeable": {
      "abi": [
        {
          "anonymous": false,
          "inputs": [
            {
              "indexed": false,
              "internalType": "uint8",
              "name": "version",
              "type": "uint8"
            }
          ],
          "name": "Initialized",
          "type": "event"
        },
        {
          "inputs": [],
          "name": "c",
          "outputs": [
            {
              "internalType": "uint256",
              "name": "",
              "type": "uint256"
            }
          ],
          "stateMutability": "view",
          "type": "function"
        },
        {
          "inputs": [],
          "name": "d",
          "outputs": [
            {
              "internalType": "uint256",
              "name": "",
              "type": "uint256"
            }
          ],
          "stateMutability": "view",
          "type": "function"
        }
      ],
      "devdoc": {
        "kind": "dev",
        "methods": {},
        "version": 1
      },
      "evm": {
        "bytecode": {
          "linkReferences": {},
          "object": "6080604052348015600f57600080fd5b50608f8061001e6000396000f3fe6080604052348015600f57600080fd5b506004361060325760003560e01c80638a054ac2146037578063c3da42b8146051575b600080fd5b603f60025481565b60405190815260200160405180910390f35b603f6001548156fea2646970667358221220d404d7f7e316986e489bb0cfea7c9b8d5a5e6ac75f83dcbb938274b59f74d2c864736f6c63430008040033",
          "opcodes": "PUSH1 0x80 PUSH1 0x40 MSTORE CALLVALUE DUP1 ISZERO PUSH1 0xF JUMPI PUSH1 0x0 DUP1 REVERT JUMPDEST POP PUSH1 0x8F DUP1 PUSH2 0x1E PUSH1 0x0 CODECOPY PUSH1 0x0 RETURN INVALID PUSH1 0x80 PUSH1 0x40 MSTORE CALLVALUE DUP1 ISZERO PUSH1 0xF JUMPI PUSH1 0x0 DUP1 REVERT JUMPDEST POP PUSH1 0x4 CALLDATASIZE LT PUSH1 0x32 JUMPI PUSH1 0x0 CALLDATALOAD PUSH1 0xE0 SHR DUP1 PUSH4 0x8A054AC2 EQ PUSH1 0x37 JUMPI DUP1 PUSH4 0xC3DA42B8 EQ PUSH1 0x51 JUMPI JUMPDEST PUSH1 0x0 DUP1 REVERT JUMPDEST PUSH1 0x3F PUSH1 0x2 SLOAD DUP2 JUMP JUMPDEST PUSH1 0x40 MLOAD SWAP1 DUP2 MSTORE PUSH1 0x20 ADD PUSH1 0x40 MLOAD DUP1 SWAP2 SUB SWAP1 RETURN JUMPDEST PUSH1 0x3F PUSH1 0x1 SLOAD DUP2 JUMP INVALID LOG2 PUSH5 0x6970667358 0x22 SLT KECCAK256 0xD4 DIV 0xD7 0xF7 0xE3 AND SWAP9 PUSH15 0x489BB0CFEA7C9B8D5A5E6AC75F83DC 0xBB SWAP4 DUP3 PUSH21 0xB59F74D2C864736F6C634300080400330000000000 "
        },
        "gasEstimates": {
          "creation": {
            "codeDepositCost": "28600",
            "executionCost": "81",
            "totalCost": "28681"
          },
          "external": {
            "c()": "983",
            "d()": "961"
          },
          "internal": {
            "__Extension1Upgradeable_init(uint256)": "infinite",
            "__Extension1Upgradeable_init_unchained(uint256)": "infinite"
          }
        },
        "methodIdentifiers": {
          "c()": "c3da42b8",
          "d()": "8a054ac2"
        }
      },
      "storageLayout": {
        "storage": [
          {
            "astId": 6,
            "contract": "contracts/Extension1Upgradeable.sol:Extension1Upgradeable",
            "label": "_initialized",
            "offset": 0,
            "slot": "0",
            "type": "t_uint8"
          },
          {
            "astId": 9,
            "contract": "contracts/Extension1Upgradeable.sol:Extension1Upgradeable",
            "label": "_initializing",
            "offset": 1,
            "slot": "0",
            "type": "t_bool"
          },
          {
            "astId": 458,
            "contract": "contracts/Extension1Upgradeable.sol:Extension1Upgradeable",
            "label": "c",
            "offset": 0,
            "slot": "1",
            "type": "t_uint256"
          },
          {
            "astId": 460,
            "contract": "contracts/Extension1Upgradeable.sol:Extension1Upgradeable",
            "label": "d",
            "offset": 0,
            "slot": "2",
            "type": "t_uint256"
          }
        ],
        "types": {
          "t_bool": {
            "encoding": "inplace",
            "label": "bool",
            "numberOfBytes": "1"
          },
          "t_uint256": {
            "encoding": "inplace",
            "label": "uint256",
            "numberOfBytes": "32"
          },
          "t_uint8": {
            "encoding": "inplace",
            "label": "uint8",
            "numberOfBytes": "1"
          }
        }
      },
      "userdoc": {
        "kind": "user",
        "methods": {},
        "version": 1
      }
    }
  }
}